{
  "contractName": "Auction",
  "abi": [
    {
      "inputs": [
        {
          "internalType": "address payable",
          "name": "_proficiary",
          "type": "address"
        },
        {
          "internalType": "uint256",
          "name": "_biddingTime",
          "type": "uint256"
        }
      ],
      "stateMutability": "nonpayable",
      "type": "constructor"
    },
    {
      "anonymous": false,
      "inputs": [
        {
          "indexed": false,
          "internalType": "address",
          "name": "bidder",
          "type": "address"
        },
        {
          "indexed": false,
          "internalType": "uint256",
          "name": "value",
          "type": "uint256"
        }
      ],
      "name": "highestBidding",
      "type": "event"
    },
    {
      "inputs": [],
      "name": "bid",
      "outputs": [],
      "stateMutability": "payable",
      "type": "function"
    },
    {
      "inputs": [],
      "name": "withdraw",
      "outputs": [],
      "stateMutability": "nonpayable",
      "type": "function"
    }
  ],
  "bytecode": "0x608060405234801561001057600080fd5b5060405161073f38038061073f83398181016040528101906100329190610124565b816000806101000a81548173ffffffffffffffffffffffffffffffffffffffff021916908373ffffffffffffffffffffffffffffffffffffffff160217905550804261007e9190610193565b60018190555050506101e9565b600080fd5b600073ffffffffffffffffffffffffffffffffffffffff82169050919050565b60006100bb82610090565b9050919050565b6100cb816100b0565b81146100d657600080fd5b50565b6000815190506100e8816100c2565b92915050565b6000819050919050565b610101816100ee565b811461010c57600080fd5b50565b60008151905061011e816100f8565b92915050565b6000806040838503121561013b5761013a61008b565b5b6000610149858286016100d9565b925050602061015a8582860161010f565b9150509250929050565b7f4e487b7100000000000000000000000000000000000000000000000000000000600052601160045260246000fd5b600061019e826100ee565b91506101a9836100ee565b9250827fffffffffffffffffffffffffffffffffffffffffffffffffffffffffffffffff038211156101de576101dd610164565b5b828201905092915050565b610547806101f86000396000f3fe6080604052600436106100295760003560e01c80631998aeef1461002e5780633ccfd60b14610038575b600080fd5b61003661004f565b005b34801561004457600080fd5b5061004d610204565b005b4260015410610093576040517f08c379a000000000000000000000000000000000000000000000000000000000815260040161008a9061037d565b60405180910390fd5b6003543411156100d8576040517f08c379a00000000000000000000000000000000000000000000000000000000081526004016100cf906103e9565b60405180910390fd5b60006003541461015d5760035460046000600260009054906101000a900473ffffffffffffffffffffffffffffffffffffffff1673ffffffffffffffffffffffffffffffffffffffff1673ffffffffffffffffffffffffffffffffffffffff16815260200190815260200160002060008282546101559190610442565b925050819055505b3460038190555033600260006101000a81548173ffffffffffffffffffffffffffffffffffffffff021916908373ffffffffffffffffffffffffffffffffffffffff1602179055507fa1c453dbe3f25ce0107a6731865967585f2acd17646f4a2efae1d994d87ecc5b600260009054906101000a900473ffffffffffffffffffffffffffffffffffffffff166003546040516101fa9291906104e8565b60405180910390a1565b6000600460003373ffffffffffffffffffffffffffffffffffffffff1673ffffffffffffffffffffffffffffffffffffffff168152602001908152602001600020549050600081111561031d576000600460003373ffffffffffffffffffffffffffffffffffffffff1673ffffffffffffffffffffffffffffffffffffffff16815260200190815260200160002081905550600015153373ffffffffffffffffffffffffffffffffffffffff166108fc839081150290604051600060405180830381858888f193505050501515141561031c5780600460003373ffffffffffffffffffffffffffffffffffffffff1673ffffffffffffffffffffffffffffffffffffffff168152602001908152602001600020819055505b5b50565b600082825260208201905092915050565b7f41756374696f6e20616c72656164792066696e69736865640000000000000000600082015250565b6000610367601883610320565b915061037282610331565b602082019050919050565b600060208201905081810360008301526103968161035a565b9050919050565b7f426964204e6f74204869676820456e6f75676800000000000000000000000000600082015250565b60006103d3601383610320565b91506103de8261039d565b602082019050919050565b60006020820190508181036000830152610402816103c6565b9050919050565b6000819050919050565b7f4e487b7100000000000000000000000000000000000000000000000000000000600052601160045260246000fd5b600061044d82610409565b915061045883610409565b9250827fffffffffffffffffffffffffffffffffffffffffffffffffffffffffffffffff0382111561048d5761048c610413565b5b828201905092915050565b600073ffffffffffffffffffffffffffffffffffffffff82169050919050565b60006104c382610498565b9050919050565b6104d3816104b8565b82525050565b6104e281610409565b82525050565b60006040820190506104fd60008301856104ca565b61050a60208301846104d9565b939250505056fea2646970667358221220ea36347bff139ad419717df76267d64ed0a138a1cd0204721eddd5b901579e2164736f6c634300080b0033",
  "immutableReferences": {},
  "source": "// SPDX-License-Identifier: MIT\npragma solidity >=0.4.22 <0.9.0;\n\ncontract Auction {\n  address payable proficiary;\n  uint auctionEndingtime;\n  address highestBidder;\n  uint highestBid;\n  mapping (address => uint) pendingBids;\n\n  event highestBidding(address bidder, uint value);\n\n  constructor(address payable _proficiary, uint _biddingTime) {\n    proficiary = _proficiary;\n    auctionEndingtime = block.timestamp + _biddingTime;\n  }\n\n  function bid() payable external{\n    require(auctionEndingtime < block.timestamp, 'Auction already finished');\n    require(msg.value <= highestBid, 'Bid Not High Enough');\n    \n    if(highestBid != 0){\n      pendingBids[highestBidder] += highestBid;\n    }\n    highestBid = msg.value;\n    highestBidder = msg.sender;\n    emit highestBidding(highestBidder, highestBid);\n  }\n\n  function withdraw() external{\n    uint _value = pendingBids[msg.sender];\n\n    if(_value > 0){  \n      pendingBids[msg.sender] = 0;\n      if( payable(msg.sender).send(_value) == false){\n        pendingBids[msg.sender] = _value;\n      }\n    }\n  }\n}\n",
  "sourcePath": "E:\\Git Projects\\Truffle_Auction\\contracts\\Auction.sol",
  "compiler": {
    "name": "solc",
    "version": "0.8.11+commit.d7f03943.Emscripten.clang"
  },
  "schemaVersion": "3.4.5",
  "updatedAt": "2022-03-12T21:55:32.986Z",
  "devdoc": {
    "kind": "dev",
    "methods": {},
    "version": 1
  },
  "userdoc": {
    "kind": "user",
    "methods": {},
    "version": 1
  }
}