{
  "contractName": "Auction",
  "abi": [
    {
      "inputs": [
        {
          "internalType": "address payable",
          "name": "_beneficiary",
          "type": "address"
        },
        {
          "internalType": "uint256",
          "name": "_biddingTime",
          "type": "uint256"
        }
      ],
      "stateMutability": "nonpayable",
      "type": "constructor"
    },
    {
      "anonymous": false,
      "inputs": [
        {
          "indexed": false,
          "internalType": "address",
          "name": "bidder",
          "type": "address"
        },
        {
          "indexed": false,
          "internalType": "uint256",
          "name": "value",
          "type": "uint256"
        }
      ],
      "name": "declareHighestBidder",
      "type": "event"
    },
    {
      "anonymous": false,
      "inputs": [
        {
          "indexed": false,
          "internalType": "address",
          "name": "bidder",
          "type": "address"
        },
        {
          "indexed": false,
          "internalType": "uint256",
          "name": "value",
          "type": "uint256"
        }
      ],
      "name": "highestBidding",
      "type": "event"
    },
    {
      "inputs": [],
      "name": "bid",
      "outputs": [],
      "stateMutability": "payable",
      "type": "function"
    },
    {
      "inputs": [],
      "name": "withdraw",
      "outputs": [],
      "stateMutability": "nonpayable",
      "type": "function"
    },
    {
      "inputs": [],
      "name": "DeclareAuctionEnd",
      "outputs": [],
      "stateMutability": "nonpayable",
      "type": "function"
    }
  ],
  "bytecode": "0x608060405234801561001057600080fd5b50604051620009b2380380620009b283398181016040528101906100349190610126565b816000806101000a81548173ffffffffffffffffffffffffffffffffffffffff021916908373ffffffffffffffffffffffffffffffffffffffff16021790555080426100809190610195565b60018190555050506101eb565b600080fd5b600073ffffffffffffffffffffffffffffffffffffffff82169050919050565b60006100bd82610092565b9050919050565b6100cd816100b2565b81146100d857600080fd5b50565b6000815190506100ea816100c4565b92915050565b6000819050919050565b610103816100f0565b811461010e57600080fd5b50565b600081519050610120816100fa565b92915050565b6000806040838503121561013d5761013c61008d565b5b600061014b858286016100db565b925050602061015c85828601610111565b9150509250929050565b7f4e487b7100000000000000000000000000000000000000000000000000000000600052601160045260246000fd5b60006101a0826100f0565b91506101ab836100f0565b9250827fffffffffffffffffffffffffffffffffffffffffffffffffffffffffffffffff038211156101e0576101df610166565b5b828201905092915050565b6107b780620001fb6000396000f3fe6080604052600436106100345760003560e01c80631998aeef146100395780633ccfd60b1461004357806396dcb01d1461005a575b600080fd5b610041610071565b005b34801561004f57600080fd5b50610058610226565b005b34801561006657600080fd5b5061006f610342565b005b42600154106100b5576040517f08c379a00000000000000000000000000000000000000000000000000000000081526004016100ac90610515565b60405180910390fd5b6003543411156100fa576040517f08c379a00000000000000000000000000000000000000000000000000000000081526004016100f190610581565b60405180910390fd5b60006003541461017f5760035460046000600260009054906101000a900473ffffffffffffffffffffffffffffffffffffffff1673ffffffffffffffffffffffffffffffffffffffff1673ffffffffffffffffffffffffffffffffffffffff168152602001908152602001600020600082825461017791906105da565b925050819055505b3460038190555033600260006101000a81548173ffffffffffffffffffffffffffffffffffffffff021916908373ffffffffffffffffffffffffffffffffffffffff1602179055507fa1c453dbe3f25ce0107a6731865967585f2acd17646f4a2efae1d994d87ecc5b600260009054906101000a900473ffffffffffffffffffffffffffffffffffffffff1660035460405161021c929190610680565b60405180910390a1565b6000600460003373ffffffffffffffffffffffffffffffffffffffff1673ffffffffffffffffffffffffffffffffffffffff168152602001908152602001600020549050600081111561033f576000600460003373ffffffffffffffffffffffffffffffffffffffff1673ffffffffffffffffffffffffffffffffffffffff16815260200190815260200160002081905550600015153373ffffffffffffffffffffffffffffffffffffffff166108fc839081150290604051600060405180830381858888f193505050501515141561033e5780600460003373ffffffffffffffffffffffffffffffffffffffff1673ffffffffffffffffffffffffffffffffffffffff168152602001908152602001600020819055505b5b50565b4260015411610386576040517f08c379a000000000000000000000000000000000000000000000000000000000815260040161037d906106f5565b60405180910390fd5b600560009054906101000a900460ff166103d5576040517f08c379a00000000000000000000000000000000000000000000000000000000081526004016103cc90610761565b60405180910390fd5b6001600560006101000a81548160ff0219169083151502179055507f44bb7538cd5b93d41666e407b08d86820f488df973edbf138525a7a1b94ce114600260009054906101000a900473ffffffffffffffffffffffffffffffffffffffff16600354604051610445929190610680565b60405180910390a160008054906101000a900473ffffffffffffffffffffffffffffffffffffffff1673ffffffffffffffffffffffffffffffffffffffff166108fc6003549081150290604051600060405180830381858888f193505050501580156104b5573d6000803e3d6000fd5b50565b600082825260208201905092915050565b7f41756374696f6e20616c72656164792066696e69736865640000000000000000600082015250565b60006104ff6018836104b8565b915061050a826104c9565b602082019050919050565b6000602082019050818103600083015261052e816104f2565b9050919050565b7f426964204e6f74204869676820456e6f75676800000000000000000000000000600082015250565b600061056b6013836104b8565b915061057682610535565b602082019050919050565b6000602082019050818103600083015261059a8161055e565b9050919050565b6000819050919050565b7f4e487b7100000000000000000000000000000000000000000000000000000000600052601160045260246000fd5b60006105e5826105a1565b91506105f0836105a1565b9250827fffffffffffffffffffffffffffffffffffffffffffffffffffffffffffffffff03821115610625576106246105ab565b5b828201905092915050565b600073ffffffffffffffffffffffffffffffffffffffff82169050919050565b600061065b82610630565b9050919050565b61066b81610650565b82525050565b61067a816105a1565b82525050565b60006040820190506106956000830185610662565b6106a26020830184610671565b9392505050565b7f41756374696f6e206e6f7420656e646564207965740000000000000000000000600082015250565b60006106df6015836104b8565b91506106ea826106a9565b602082019050919050565b6000602082019050818103600083015261070e816106d2565b9050919050565b7f456e64696e672041756374696f6e20616c72656164792063616c6c6564000000600082015250565b600061074b601d836104b8565b915061075682610715565b602082019050919050565b6000602082019050818103600083015261077a8161073e565b905091905056fea2646970667358221220ad802f0281f454fbf0a6d153b9a30c17e223fc4b2e789e9d42821687f7313f0964736f6c634300080b0033",
  "immutableReferences": {},
  "source": "// SPDX-License-Identifier: MIT\npragma solidity >=0.4.22 <0.9.0;\n\ncontract Auction {\n  address payable beneficiary;\n  uint auctionEndingtime;\n  address highestBidder;\n  uint highestBid;\n  mapping (address => uint) pendingBids;\n  bool auctionEnded;\n\n  event highestBidding(address bidder, uint value);\n  event declareHighestBidder(address bidder, uint value);\n\n  constructor(address payable _beneficiary, uint _biddingTime) {\n    beneficiary = _beneficiary;\n    auctionEndingtime = block.timestamp + _biddingTime;\n  }\n\n  function bid() payable external{\n    require(auctionEndingtime < block.timestamp, 'Auction already finished');\n    require(msg.value <= highestBid, 'Bid Not High Enough');\n    \n    if(highestBid != 0){\n      pendingBids[highestBidder] += highestBid;\n    }\n    highestBid = msg.value;\n    highestBidder = msg.sender;\n    emit highestBidding(highestBidder, highestBid);\n  }\n\n  function withdraw() external{\n    uint _value = pendingBids[msg.sender];\n\n    if(_value > 0){  \n      pendingBids[msg.sender] = 0;\n      if( payable(msg.sender).send(_value) == false){\n        pendingBids[msg.sender] = _value;\n      }\n    }\n  }\n\n  function DeclareAuctionEnd() external{\n    require(auctionEndingtime > block.timestamp, 'Auction not ended yet');\n    require(auctionEnded, 'Ending Auction already called');\n    auctionEnded = true;\n    emit declareHighestBidder(highestBidder, highestBid);\n    beneficiary.transfer(highestBid);\n  }\n}\n",
  "sourcePath": "E:\\Git Projects\\Truffle_Auction\\contracts\\Auction.sol",
  "compiler": {
    "name": "solc",
    "version": "0.8.11+commit.d7f03943.Emscripten.clang"
  },
  "schemaVersion": "3.4.5",
  "updatedAt": "2022-03-12T22:08:38.066Z",
  "devdoc": {
    "kind": "dev",
    "methods": {},
    "version": 1
  },
  "userdoc": {
    "kind": "user",
    "methods": {},
    "version": 1
  }
}