{
  "contractName": "Auction",
  "abi": [
    {
      "inputs": [
        {
          "internalType": "address payable",
          "name": "_proficienary",
          "type": "address"
        },
        {
          "internalType": "uint256",
          "name": "_EndingTime",
          "type": "uint256"
        }
      ],
      "stateMutability": "nonpayable",
      "type": "constructor"
    },
    {
      "anonymous": false,
      "inputs": [
        {
          "indexed": false,
          "internalType": "address",
          "name": "",
          "type": "address"
        },
        {
          "indexed": false,
          "internalType": "uint256",
          "name": "",
          "type": "uint256"
        }
      ],
      "name": "highestBidding",
      "type": "event"
    },
    {
      "inputs": [],
      "name": "bid",
      "outputs": [],
      "stateMutability": "payable",
      "type": "function"
    }
  ],
  "bytecode": "0x608060405234801561001057600080fd5b506040516104c53803806104c583398181016040528101906100329190610124565b816000806101000a81548173ffffffffffffffffffffffffffffffffffffffff021916908373ffffffffffffffffffffffffffffffffffffffff160217905550804261007e9190610193565b60018190555050506101e9565b600080fd5b600073ffffffffffffffffffffffffffffffffffffffff82169050919050565b60006100bb82610090565b9050919050565b6100cb816100b0565b81146100d657600080fd5b50565b6000815190506100e8816100c2565b92915050565b6000819050919050565b610101816100ee565b811461010c57600080fd5b50565b60008151905061011e816100f8565b92915050565b6000806040838503121561013b5761013a61008b565b5b6000610149858286016100d9565b925050602061015a8582860161010f565b9150509250929050565b7f4e487b7100000000000000000000000000000000000000000000000000000000600052601160045260246000fd5b600061019e826100ee565b91506101a9836100ee565b9250827fffffffffffffffffffffffffffffffffffffffffffffffffffffffffffffffff038211156101de576101dd610164565b5b828201905092915050565b6102cd806101f86000396000f3fe60806040526004361061001e5760003560e01c80631998aeef14610023575b600080fd5b61002b61002d565b005b426001541115610072576040517f08c379a0000000000000000000000000000000000000000000000000000000008152600401610069906101f4565b60405180910390fd5b600354341115610195576000600354146100ef5760035460046000600260009054906101000a900473ffffffffffffffffffffffffffffffffffffffff1673ffffffffffffffffffffffffffffffffffffffff1673ffffffffffffffffffffffffffffffffffffffff168152602001908152602001600020819055505b3460038190555033600260006101000a81548173ffffffffffffffffffffffffffffffffffffffff021916908373ffffffffffffffffffffffffffffffffffffffff1602179055507fa1c453dbe3f25ce0107a6731865967585f2acd17646f4a2efae1d994d87ecc5b600260009054906101000a900473ffffffffffffffffffffffffffffffffffffffff1660035460405161018c92919061026e565b60405180910390a15b565b600082825260208201905092915050565b7f41756374696f6e20697320616c72656164792066696e69736865640000000000600082015250565b60006101de601b83610197565b91506101e9826101a8565b602082019050919050565b6000602082019050818103600083015261020d816101d1565b9050919050565b600073ffffffffffffffffffffffffffffffffffffffff82169050919050565b600061023f82610214565b9050919050565b61024f81610234565b82525050565b6000819050919050565b61026881610255565b82525050565b60006040820190506102836000830185610246565b610290602083018461025f565b939250505056fea26469706673582212206516a2bce31688b0300333ecda99eee39cb9392de5b979b91b8626038f9743a264736f6c634300080b0033",
  "immutableReferences": {},
  "source": "// SPDX-License-Identifier: MIT\npragma solidity >=0.4.22 <0.9.0;\n\ncontract Auction {\n  address payable proficienary;\n  uint endingTime;\n  address highestBidder;\n  uint highestBid;\n  mapping (address => uint) remainedBid;\n\n  event highestBidding(address, uint);\n\n  constructor(address payable _proficienary, uint _EndingTime) {\n    proficienary = _proficienary;\n    endingTime = block.timestamp + _EndingTime;\n  }\n\n  function bid() payable public{\n    require(endingTime <= block.timestamp, 'Auction is already finished');\n    if(msg.value > highestBid){\n      if(highestBid != 0){\n        remainedBid[highestBidder] = highestBid;\n      }\n      highestBid = msg.value;\n      highestBidder = msg.sender;\n      emit highestBidding(highestBidder, highestBid);\n    }\n  }\n\n  \n}\n",
  "sourcePath": "E:\\Git Projects\\Truffle_Auction\\contracts\\Auction.sol",
  "compiler": {
    "name": "solc",
    "version": "0.8.11+commit.d7f03943.Emscripten.clang"
  },
  "schemaVersion": "3.4.5",
  "updatedAt": "2022-03-12T21:15:29.412Z",
  "devdoc": {
    "kind": "dev",
    "methods": {},
    "version": 1
  },
  "userdoc": {
    "kind": "user",
    "methods": {},
    "version": 1
  }
}